:100000000C9462000C948A000C948A000C948A0070
:100010000C948A000C948A000C948A000C948A0038
:100020000C948A000C948A000C948A000C948A0028
:100030000C948A000C948A000C948A000C948A0018
:100040000C9469030C948A000C948A000C948A0026
:100050000C948A000C948A000C948A000C948A00F8
:100060000C948A000C948A000000000024002700F1
:100070002A0000000000250028002B0000000008D6
:10008000000201000003040700000000000000005F
:1000900000000000230026002900040404040404D6
:1000A0000404020202020202030303030303010227
:1000B00004081020408001020408102001020408F6
:1000C0001020290511241FBECFEFD8E0DEBFCDBF21
:1000D00011E0A0E0B1E0E0E2FBE002C005900D928B
:1000E000AE31B107D9F721E0AEE1B1E001C01D9218
:1000F000AF33B207E1F710E0C2E6D0E004C02197C9
:10010000FE010E948805C136D107C9F70E94F80395
:100110000C948E050C940000AF92BF92CF92DF92A8
:10012000EF92FF920F931F93CF93DF936C017B01AC
:100130008B01040F151FEB015E01AE18BF08C0173D
:10014000D10759F06991D601ED91FC910190F081B0
:10015000E02DC6010995892B79F7C501DF91CF9173
:100160001F910F91FF90EF90DF90CF90BF90AF90D5
:10017000089590E0FC01E458FF4F2491FC01E25502
:10018000FF4F3491FC01E656FF4FE491EE23C9F096
:10019000222339F0233001F1A8F4213019F1223063
:1001A00029F1F0E0EE0FFF1FEE58FF4FA591B4913B
:1001B0008FB7F894EC91611126C030953E233C93A3
:1001C0008FBF08952730A9F02830C9F0243049F7AF
:1001D000809180008F7D03C0809180008F77809315
:1001E0008000DFCF84B58F7784BDDBCF84B58F7D72
:1001F000FBCF8091B0008F778093B000D2CF8091F9
:10020000B0008F7DF9CF3E2BDACFCF93DF9390E014
:10021000FC01E255FF4F249186569F4FFC018491CB
:100220008823D1F090E0880F991FFC01E859FF4F17
:10023000A591B491FC01EE58FF4FC591D491611185
:100240000EC09FB7F8948C91E22FE0958E238C938B
:100250002881E223E8839FBFDF91CF9108958FB774
:10026000F894EC91E22BEC938FBFF6CF3FB7F89464
:100270008091230190912401A0912501B091260144
:1002800026B5A89B05C02F3F19F00196A11DB11DF1
:100290003FBFBA2FA92F982F8827BC01CD01620F2D
:1002A000711D811D911D42E0660F771F881F991FE8
:1002B0004A95D1F708958F929F92AF92BF92CF92B5
:1002C000DF92EF92FF924B015C010E9436016B01BD
:1002D0007C010E9436016C197D098E099F09683ED8
:1002E000734081059105A8F321E0821A9108A108C5
:1002F000B10888EEC80E83E0D81EE11CF11C811401
:100300009104A104B10429F7FF90EF90DF90CF9002
:10031000BF90AF909F908F900895089590E080E0F7
:1003200008958F929F92AF92BF920F931F93CF9396
:10033000DF93CDB7DEB7A1970FB6F894DEBF0FBE3F
:10034000CDBF19A2423008F44AE08E010F5D1F4F65
:10035000842E912CB12CA12CA50194010E9447055B
:10036000E62FB901CA01EA3044F5E05DD801EE9309
:100370008D01232B242B252B79F790E080E010971B
:1003800069F0FD0101900020E9F73197AF014A1BA8
:100390005B0BBD0187E291E00E948C00A1960FB635
:1003A000F894DEBF0FBECDBFDF91CF911F910F91AB
:1003B000BF90AF909F908F900895E95CD7CF0F9337
:1003C0001F9390E0FC01E255FF4F6491FC01E6565B
:1003D000FF4FE491F0E0EE0FFF1FE057FF4F8591D4
:1003E000949100E412E42FE030E0462F0E94B30322
:1003F000611571058105910529F06F5F7F4F8F4F62
:100400009F4F9F701F910F910895CF93DF93EC0141
:1004100060E08E810E94B90061E08E810E94B90087
:1004200060E08E810E94B9008BE891E00197F1F7BE
:10043000DF91CF910895CF92DF92EF92FF920F93C9
:100440001F93CF93DF936C017C0187E0E80EF11CD2
:10045000D0E0C0E0062F10E0B8010C2E02C0759568
:1004600067950A94E2F76170F70181917F010E941C
:10047000B9002196C430D10579F7C601DF91CF913B
:100480001F910F91FF90EF90DF90CF900C94050299
:10049000CF92DF92EF92FF920F931F93CF93DF9350
:1004A000EC01F62E642F8C810E94B9008D818F3F64
:1004B00019F060E00E94B9000F2D10E08F8584FFD5
:1004C00025C06E0187E0C80ED11CF12CE12CB801CB
:1004D0000E2C02C0759567950A94E2F76170F601DB
:1004E00081916F010E94B900FFEFEF1AFF0A88E0C7
:1004F000E816F10461F7CE01DF91CF911F910F91C2
:10050000FF90EF90DF90CF900C940502B80184E04B
:10051000759567958A95E1F7CE010E941B026F2DB4
:10052000CE01DF91CF911F910F91FF90EF90DF905F
:10053000CF900C941B0240E0682F87E291E00C946E
:100540004802CF93DF93823029F49091360198606E
:100550009093360180933A0110923B0180E480939E
:100560003C0180E180933D0180E580933E0161E0A4
:1005700080912B010E94050180912C018F3F19F081
:1005800061E00E94050161E080912D010E9405015A
:10059000C7E2D1E09E01275231408091360184FDAF
:1005A0000BC084E090E021962817390744F461E0FD
:1005B0008E810E940501EECF88E090E0F4CF8BE3BE
:1005C0009DE00197F1F760E080912B010E94B90056
:1005D00060E080912D010E94B90080912C018F3F35
:1005E00019F060E00E94B9008091360184FD39C0A5
:1005F00063E087E291E00E941B02CBE4D6E4CE01E7
:100600000197F1F763E087E291E00E941B022197D6
:10061000F1F763E087E291E00E941B0283E592E03C
:100620000197F1F762E087E291E00E941B0280915E
:10063000360180620E949B0284E0809337018CE047
:100640000E949B0281E00E949B028BE39FE1019745
:10065000F1F782E08093380186E0DF91CF910C942E
:100660009B0280620E949B028BE496E40197F1F763
:100670008091360180620E949B0283E592E001979F
:10068000F1F78091360180620E949B02D0CF41E059
:100690000E94480281E090E00895CF92DF92EF92AD
:1006A000FF926B017C0141E06DE287E291E00E94E4
:1006B000480266277727CB016C197D098E099F09AF
:1006C0004AE00E9491010196FF90EF90DF90CF9059
:1006D00008951F920F920FB60F9211242F933F93FC
:1006E0008F939F93AF93BF9380911F0190912001AF
:1006F000A0912101B091220130911E0123E0230F2E
:100700002D3758F50196A11DB11D20931E01809330
:100710001F0190932001A0932101B09322018091A9
:10072000230190912401A0912501B0912601019609
:10073000A11DB11D8093230190932401A093250155
:10074000B0932601BF91AF919F918F913F912F91CF
:100750000F900FBE0F901F90189526E8230F02965A
:10076000A11DB11DD2CFCF92DF92EF92FF920F93D6
:100770001F93E82FF92F05C00150110921093109F4
:1007800061F1908196239417B9F305C001501109C6
:100790002109310911F1908196239413F7CFC12CCF
:1007A000D12CE12CF12C0AC08FEFC81AD80AE80A24
:1007B000F80A0C151D052E053F0579F0808186236A
:1007C000841791F36C2D7D2D8E2D9F2D1F910F91F0
:1007D000FF90EF90DF90CF90089560E070E080E0B0
:1007E00090E01F910F91FF90EF90DF90CF900895D0
:1007F000789484B5826084BD84B5816084BD85B5FC
:10080000826085BD85B5816085BD80916E00816007
:1008100080936E00109281008091810082608093AD
:1008200081008091810081608093810080918000AF
:100830008160809380008091B10084608093B100DA
:100840008091B00081608093B00080917A008460D4
:1008500080937A0080917A00826080937A00809100
:100860007A00816080937A0080917A00806880931A
:100870007A001092C10082E00E94A10261E08DE046
:100880000E94050161E08AE00E94050161E087E0C5
:100890000E94050160E086E00E94050161E089E0B8
:1008A0000E94050160E088E00E94050103E010E07D
:1008B000C3E2D0E08AE3482E512C612C712C90E0E9
:1008C000292E90E0392E60E087E00E94B900C8012F
:1008D0000197F1F761E087E00E94B900CE0101972E
:1008E000F1F760E087E00E94B90086E00E94DF0136
:1008F000A30192010E94690549015A0160E089E063
:100900000E94B900C8010197F1F761E089E00E94F7
:10091000B900CE010197F1F760E089E00E94B900CB
:1009200088E00E94DF01A30192010E94690569012C
:100930007A01E1E080913A018111E0E0E195F0E097
:10094000E95DFE4F848980680E949B0247E050E089
:100950006CE071E087E291E00E948C00B7FE61C01C
:10096000C501B4010E944D03E0913A01E23008F064
:100970005EC0E150F0E0E95DFE4F848980680E942E
:100980009B0248E050E064E171E087E291E00E9460
:100990008C00F7FE4EC0C701B6010E944D0384E1F2
:1009A00088169104A104B1040CF049C061E08DE007
:1009B0000E94B90068EE73E080E090E00E945B0165
:1009C00060E08DE00E94B90060ED77E080E090E0AB
:1009D0000E945B0186E0C816D104E104F104A4F58D
:1009E00061E08AE00E94B90068EE73E080E090E088
:1009F0000E945B0160E08AE00E94B90068EE73E04B
:100A000080E090E00E945B0164E670E080E090E0AE
:100A10000E945B012114310409F455CF0E940000AB
:100A200052CF4AE0C501B4010E9491019DCFE1E09F
:100A3000A1CF4AE0C701B6010E949101B0CF60E0AA
:100A40008DE00E94B900C6CF60E08AE00E94B90044
:100A5000DBCFE7E2F1E01382128284E091E0918340
:100A600080838CE084838FEF85838BE0868385E0B1
:100A7000878384E0808783E0818782E08287138692
:100A8000148615861686178681E00C94A102A1E2D1
:100A90001A2EAA1BBB1BFD010DC0AA1FBB1FEE1FF8
:100AA000FF1FA217B307E407F50720F0A21BB30B43
:100AB000E40BF50B661F771F881F991F1A9469F7BF
:100AC00060957095809590959B01AC01BD01CF011B
:100AD0000895052E97FB1EF400940E94800557FD93
:100AE00007D00E94470507FC03D04EF40C94800504
:100AF00050954095309521953F4F4F4F5F4F08954A
:100B000090958095709561957F4F8F4F9F4F089579
:100B1000EE0FFF1F0590F491E02D0994F894FFCF9C
:100B20000000000047038C008E018D0155542063A6
:0E0B30006D3A2000555420636D323A200000CB
:00000001FF
